{
  "contractName": "WeatherOracle",
  "abi": [
    {
      "constant": true,
      "inputs": [],
      "name": "oracleAddress",
      "outputs": [
        {
          "name": "",
          "type": "address"
        }
      ],
      "payable": false,
      "stateMutability": "view",
      "type": "function"
    },
    {
      "inputs": [
        {
          "name": "_oracleAddress",
          "type": "address"
        }
      ],
      "payable": false,
      "stateMutability": "nonpayable",
      "type": "constructor"
    },
    {
      "anonymous": false,
      "inputs": [
        {
          "indexed": false,
          "name": "temperature",
          "type": "uint256"
        }
      ],
      "name": "WeatherUpdate",
      "type": "event"
    },
    {
      "constant": false,
      "inputs": [
        {
          "name": "_temperature",
          "type": "uint256"
        }
      ],
      "name": "updateWeather",
      "outputs": [],
      "payable": false,
      "stateMutability": "nonpayable",
      "type": "function"
    },
    {
      "constant": true,
      "inputs": [],
      "name": "getTemperature",
      "outputs": [
        {
          "name": "temp",
          "type": "uint256"
        }
      ],
      "payable": false,
      "stateMutability": "view",
      "type": "function"
    }
  ],
  "bytecode": "0x608060405234801561001057600080fd5b5060405160208061028783398101806040528101908080519060200190929190505050806000806101000a81548173ffffffffffffffffffffffffffffffffffffffff021916908373ffffffffffffffffffffffffffffffffffffffff16021790555050610204806100836000396000f300608060405260043610610057576000357c0100000000000000000000000000000000000000000000000000000000900463ffffffff1680636421d04b1461005c578063a89ae4ba14610087578063b5360d02146100de575b600080fd5b34801561006857600080fd5b5061007161010b565b6040518082815260200191505060405180910390f35b34801561009357600080fd5b5061009c610115565b604051808273ffffffffffffffffffffffffffffffffffffffff1673ffffffffffffffffffffffffffffffffffffffff16815260200191505060405180910390f35b3480156100ea57600080fd5b506101096004803603810190808035906020019092919050505061013a565b005b6000600154905090565b6000809054906101000a900473ffffffffffffffffffffffffffffffffffffffff1681565b6000809054906101000a900473ffffffffffffffffffffffffffffffffffffffff1673ffffffffffffffffffffffffffffffffffffffff163373ffffffffffffffffffffffffffffffffffffffff1614151561019557600080fd5b806001819055507fae608db43fb396fdb8dfe578e7beb5455281190ac7e828456ce9df4dec4636e46001546040518082815260200191505060405180910390a1505600a165627a7a723058209158a607d581a4db54ed261efc682200679d9d01a7c3ea69c9210896497c5b200029",
  "source": "pragma solidity ^0.4.25;\n\n\ncontract WeatherOracle {\n  address public oracleAddress;\n  uint temperature;\n\n  constructor (address _oracleAddress) public {\n    oracleAddress = _oracleAddress;\n  }\n\n  event WeatherUpdate (uint temperature);\n\n  function updateWeather (uint _temperature) public {\n    require(msg.sender == oracleAddress);\n    temperature = _temperature;\n    emit WeatherUpdate (temperature);\n  }\n\n  function getTemperature() public view returns (uint temp) {\n    return temperature;\n  }\n}\n",
  "sourcePath": "/home/greg/Documents/dapps/simpleDApp/react/oracleSmartContracts/contracts/WeatherOracle.sol",
  "compiler": {
    "name": "solc",
    "version": "0.4.25+commit.59dbf8f1.Emscripten.clang"
  },
  "schemaVersion": "3.0.5",
  "updatedAt": "2019-03-25T13:51:06.523Z",
  "devdoc": {
    "methods": {}
  },
  "userdoc": {
    "methods": {}
  }
}