{
  "contractName": "VoteForSweaterPt3",
  "abi": [
    {
      "constant": true,
      "inputs": [
        {
          "name": "",
          "type": "uint256"
        }
      ],
      "name": "colorChoices",
      "outputs": [
        {
          "name": "",
          "type": "string"
        }
      ],
      "payable": false,
      "stateMutability": "view",
      "type": "function",
      "signature": "0x3b10f2e7"
    },
    {
      "anonymous": false,
      "inputs": [
        {
          "indexed": false,
          "name": "sender",
          "type": "address"
        },
        {
          "indexed": false,
          "name": "color",
          "type": "string"
        }
      ],
      "name": "SweaterEvent",
      "type": "event",
      "signature": "0xe55fdefd73779ae41868aee374a0c360596da8f05a2502213a1d9c164c4ed2f6"
    },
    {
      "constant": false,
      "inputs": [
        {
          "name": "color",
          "type": "string"
        }
      ],
      "name": "sweaterVote",
      "outputs": [],
      "payable": false,
      "stateMutability": "nonpayable",
      "type": "function",
      "signature": "0xae2000cd"
    },
    {
      "constant": true,
      "inputs": [
        {
          "name": "color",
          "type": "string"
        }
      ],
      "name": "getVotes",
      "outputs": [
        {
          "name": "votes",
          "type": "uint256"
        }
      ],
      "payable": false,
      "stateMutability": "view",
      "type": "function",
      "signature": "0x805265e5"
    },
    {
      "constant": true,
      "inputs": [
        {
          "name": "voteAddress",
          "type": "address"
        }
      ],
      "name": "checkAlreadyVoted",
      "outputs": [
        {
          "name": "voted",
          "type": "bool"
        }
      ],
      "payable": false,
      "stateMutability": "view",
      "type": "function",
      "signature": "0x6bf87411"
    }
  ],
  "bytecode": "0x60806040526080604051908101604052806040805190810160405280600481526020017f626c75650000000000000000000000000000000000000000000000000000000081525081526020016040805190810160405280600581526020017f677265656e00000000000000000000000000000000000000000000000000000081525081526020016040805190810160405280600381526020017f726564000000000000000000000000000000000000000000000000000000000081525081526020016040805190810160405280600581526020017f62726f776e000000000000000000000000000000000000000000000000000000815250815250600190600461010a92919061011d565b5034801561011757600080fd5b50610296565b82805482825590600052602060002090810192821561016c579160200282015b8281111561016b57825182908051906020019061015b92919061017d565b509160200191906001019061013d565b5b50905061017991906101fd565b5090565b828054600181600116156101000203166002900490600052602060002090601f016020900481019282601f106101be57805160ff19168380011785556101ec565b828001600101855582156101ec579182015b828111156101eb5782518255916020019190600101906101d0565b5b5090506101f99190610229565b5090565b61022691905b808211156102225760008181610219919061024e565b50600101610203565b5090565b90565b61024b91905b8082111561024757600081600090555060010161022f565b5090565b90565b50805460018160011615610100020316600290046000825580601f106102745750610293565b601f0160209004906000526020600020908101906102929190610229565b5b50565b61071b806102a56000396000f300608060405260043610610062576000357c0100000000000000000000000000000000000000000000000000000000900463ffffffff1680633b10f2e7146100675780636bf874111461010d578063805265e514610168578063ae2000cd146101e5575b600080fd5b34801561007357600080fd5b506100926004803603810190808035906020019092919050505061024e565b6040518080602001828103825283818151815260200191508051906020019080838360005b838110156100d25780820151818401526020810190506100b7565b50505050905090810190601f1680156100ff5780820380516001836020036101000a031916815260200191505b509250505060405180910390f35b34801561011957600080fd5b5061014e600480360381019080803573ffffffffffffffffffffffffffffffffffffffff169060200190929190505050610309565b604051808215151515815260200191505060405180910390f35b34801561017457600080fd5b506101cf600480360381019080803590602001908201803590602001908080601f016020809104026020016040519081016040528093929190818152602001838380828437820191505050505050919291929050505061035f565b6040518082815260200191505060405180910390f35b3480156101f157600080fd5b5061024c600480360381019080803590602001908201803590602001908080601f01602080910402602001604051908101604052809392919081815260200183838082843782019150505050505091929192905050506103d3565b005b60018181548110151561025d57fe5b906000526020600020016000915090508054600181600116156101000203166002900480601f0160208091040260200160405190810160405280929190818152602001828054600181600116156101000203166002900480156103015780601f106102d657610100808354040283529160200191610301565b820191906000526020600020905b8154815290600101906020018083116102e457829003601f168201915b505050505081565b6000600260008373ffffffffffffffffffffffffffffffffffffffff1673ffffffffffffffffffffffffffffffffffffffff16815260200190815260200160002060009054906101000a900460ff169050919050565b600080826040518082805190602001908083835b6020831015156103985780518252602082019150602081019050602083039250610373565b6001836020036101000a0380198251168184511680821785525050505050509050019150509081526020016040518091039020549050919050565b6000801515600260003373ffffffffffffffffffffffffffffffffffffffff1673ffffffffffffffffffffffffffffffffffffffff16815260200190815260200160002060009054906101000a900460ff16151514151561043357600080fd5b600090505b6001805490508110156106eb57816040518082805190602001908083835b60208310151561047b5780518252602082019150602081019050602083039250610456565b6001836020036101000a0380198251168184511680821785525050505050509050019150506040518091039020600019166001828154811015156104bb57fe5b9060005260206000200160405180828054600181600116156101000203166002900480156105205780601f106104fe576101008083540402835291820191610520565b820191906000526020600020905b81548152906001019060200180831161050c575b505091505060405180910390206000191614156106de5760016000836040518082805190602001908083835b602083101515610571578051825260208201915060208101905060208303925061054c565b6001836020036101000a0380198251168184511680821785525050505050509050019150509081526020016040518091039020600082825401925050819055506001600260003373ffffffffffffffffffffffffffffffffffffffff1673ffffffffffffffffffffffffffffffffffffffff16815260200190815260200160002060006101000a81548160ff0219169083151502179055507fe55fdefd73779ae41868aee374a0c360596da8f05a2502213a1d9c164c4ed2f63383604051808373ffffffffffffffffffffffffffffffffffffffff1673ffffffffffffffffffffffffffffffffffffffff16815260200180602001828103825283818151815260200191508051906020019080838360005b8381101561069e578082015181840152602081019050610683565b50505050905090810190601f1680156106cb5780820380516001836020036101000a031916815260200191505b50935050505060405180910390a16106eb565b8080600101915050610438565b50505600a165627a7a72305820b6fb8dca5375de80aebfb32054b00786efa9a855e146a8582e54dc925ecdfb110029",
  "source": "pragma solidity 0.4.25;\n\ncontract VoteForSweaterPt3 {\n\n  mapping(string => uint) sweaterMap;\n  string[] public colorChoices = [\"blue\", \"green\", \"red\", \"brown\"];\n  mapping(address => bool) alreadyVoted;\n\n  event SweaterEvent(address sender, string color);\n\n  function sweaterVote(string memory color) public {\n    require(alreadyVoted[msg.sender] == false);\n    for (uint i = 0; i < colorChoices.length; i++) {\n        if (keccak256(colorChoices[i]) == keccak256(color)) {\n            sweaterMap[color] += 1;\n            alreadyVoted[msg.sender] = true;\n            emit SweaterEvent(msg.sender, color);\n            break;\n        }\n    }\n  }\n\n  function getVotes(string memory color) public view returns (uint votes) {\n      return sweaterMap[color];\n  }\n\n  function checkAlreadyVoted(address voteAddress) public view returns (bool voted) {\n      return alreadyVoted[voteAddress];\n  }\n}\n",
  "sourcePath": "/home/greg/Documents/dapps/drizzleUpdate/oracleSmartContracts/contracts/VoteForSweaterPt3.sol",
  "compiler": {
    "name": "solc",
    "version": "0.4.25+commit.59dbf8f1.Emscripten.clang"
  },
  "schemaVersion": "3.0.5",
  "updatedAt": "2019-03-26T20:01:21.695Z",
  "devdoc": {
    "methods": {}
  },
  "userdoc": {
    "methods": {}
  }
}