{
  "contractName": "VoteForSweaterPt3",
  "abi": [
    {
      "constant": true,
      "inputs": [
        {
          "name": "",
          "type": "uint256"
        }
      ],
      "name": "colorChoices",
      "outputs": [
        {
          "name": "",
          "type": "string"
        }
      ],
      "payable": false,
      "stateMutability": "view",
      "type": "function",
      "signature": "0x3b10f2e7"
    },
    {
      "inputs": [],
      "payable": false,
      "stateMutability": "nonpayable",
      "type": "constructor",
      "signature": "constructor"
    },
    {
      "anonymous": false,
      "inputs": [
        {
          "indexed": false,
          "name": "sender",
          "type": "address"
        },
        {
          "indexed": false,
          "name": "color",
          "type": "string"
        }
      ],
      "name": "SweaterEvent",
      "type": "event",
      "signature": "0xe55fdefd73779ae41868aee374a0c360596da8f05a2502213a1d9c164c4ed2f6"
    },
    {
      "constant": false,
      "inputs": [
        {
          "name": "color",
          "type": "string"
        }
      ],
      "name": "sweaterVote",
      "outputs": [],
      "payable": false,
      "stateMutability": "nonpayable",
      "type": "function",
      "signature": "0xae2000cd"
    },
    {
      "constant": true,
      "inputs": [
        {
          "name": "color",
          "type": "string"
        }
      ],
      "name": "getVotes",
      "outputs": [
        {
          "name": "votes",
          "type": "uint256"
        }
      ],
      "payable": false,
      "stateMutability": "view",
      "type": "function",
      "signature": "0x805265e5"
    },
    {
      "constant": true,
      "inputs": [
        {
          "name": "voteAddress",
          "type": "address"
        }
      ],
      "name": "checkAlreadyVoted",
      "outputs": [
        {
          "name": "voted",
          "type": "bool"
        }
      ],
      "payable": false,
      "stateMutability": "view",
      "type": "function",
      "signature": "0x6bf87411"
    }
  ],
  "bytecode": "0x60806040526080604051908101604052806040805190810160405280600481526020017f626c75650000000000000000000000000000000000000000000000000000000081525081526020016040805190810160405280600581526020017f677265656e00000000000000000000000000000000000000000000000000000081525081526020016040805190810160405280600381526020017f726564000000000000000000000000000000000000000000000000000000000081525081526020016040805190810160405280600581526020017f62726f776e000000000000000000000000000000000000000000000000000000815250815250600190600461010a9291906101d2565b5034801561011757600080fd5b50600080600091505b6001805490508210156101cb5760018281548110151561013c57fe5b9060005260206000200190506000808260405180828054600181600116156101000203166002900480156101a75780601f106101855761010080835404028352918201916101a7565b820191906000526020600020905b815481529060010190602001808311610193575b50509150509081526020016040518091039020819055508180600101925050610120565b505061034b565b828054828255906000526020600020908101928215610221579160200282015b82811115610220578251829080519060200190610210929190610232565b50916020019190600101906101f2565b5b50905061022e91906102b2565b5090565b828054600181600116156101000203166002900490600052602060002090601f016020900481019282601f1061027357805160ff19168380011785556102a1565b828001600101855582156102a1579182015b828111156102a0578251825591602001919060010190610285565b5b5090506102ae91906102de565b5090565b6102db91905b808211156102d757600081816102ce9190610303565b506001016102b8565b5090565b90565b61030091905b808211156102fc5760008160009055506001016102e4565b5090565b90565b50805460018160011615610100020316600290046000825580601f106103295750610348565b601f01602090049060005260206000209081019061034791906102de565b5b50565b6106d2806200035b6000396000f300608060405260043610610062576000357c0100000000000000000000000000000000000000000000000000000000900463ffffffff1680633b10f2e7146100675780636bf874111461010d578063805265e514610168578063ae2000cd146101e5575b600080fd5b34801561007357600080fd5b506100926004803603810190808035906020019092919050505061024e565b6040518080602001828103825283818151815260200191508051906020019080838360005b838110156100d25780820151818401526020810190506100b7565b50505050905090810190601f1680156100ff5780820380516001836020036101000a031916815260200191505b509250505060405180910390f35b34801561011957600080fd5b5061014e600480360381019080803573ffffffffffffffffffffffffffffffffffffffff169060200190929190505050610309565b604051808215151515815260200191505060405180910390f35b34801561017457600080fd5b506101cf600480360381019080803590602001908201803590602001908080601f0160208091040260200160405190810160405280939291908181526020018383808284378201915050505050509192919290505050610375565b6040518082815260200191505060405180910390f35b3480156101f157600080fd5b5061024c600480360381019080803590602001908201803590602001908080601f01602080910402602001604051908101604052809392919081815260200183838082843782019150505050505091929192905050506103e9565b005b60018181548110151561025d57fe5b906000526020600020016000915090508054600181600116156101000203166002900480601f0160208091040260200160405190810160405280929190818152602001828054600181600116156101000203166002900480156103015780601f106102d657610100808354040283529160200191610301565b820191906000526020600020905b8154815290600101906020018083116102e457829003601f168201915b505050505081565b600080600260008473ffffffffffffffffffffffffffffffffffffffff1673ffffffffffffffffffffffffffffffffffffffff16815260200190815260200160002060009054906101000a900460ff169050801561036a576001915061036f565b600091505b50919050565b600080826040518082805190602001908083835b6020831015156103ae5780518252602082019150602081019050602083039250610389565b6001836020036101000a0380198251168184511680821785525050505050509050019150509081526020016040518091039020549050919050565b60008090505b6001805490508110156106a257816040518082805190602001908083835b602083101515610432578051825260208201915060208101905060208303925061040d565b6001836020036101000a03801982511681845116808217855250505050505090500191505060405180910390206000191660018281548110151561047257fe5b9060005260206000200160405180828054600181600116156101000203166002900480156104d75780601f106104b55761010080835404028352918201916104d7565b820191906000526020600020905b8154815290600101906020018083116104c3575b505091505060405180910390206000191614156106955760016000836040518082805190602001908083835b6020831015156105285780518252602082019150602081019050602083039250610503565b6001836020036101000a0380198251168184511680821785525050505050509050019150509081526020016040518091039020600082825401925050819055506001600260003373ffffffffffffffffffffffffffffffffffffffff1673ffffffffffffffffffffffffffffffffffffffff16815260200190815260200160002060006101000a81548160ff0219169083151502179055507fe55fdefd73779ae41868aee374a0c360596da8f05a2502213a1d9c164c4ed2f63383604051808373ffffffffffffffffffffffffffffffffffffffff1673ffffffffffffffffffffffffffffffffffffffff16815260200180602001828103825283818151815260200191508051906020019080838360005b8381101561065557808201518184015260208101905061063a565b50505050905090810190601f1680156106825780820380516001836020036101000a031916815260200191505b50935050505060405180910390a16106a2565b80806001019150506103ef565b50505600a165627a7a7230582068578988ca8dfa862f7e205bd92804702453664edab425e065a747792722aa110029",
  "source": "pragma solidity 0.4.25;\n\ncontract VoteForSweaterPt3 {\n\n  mapping(string => uint) sweaterMap;\n  string[] public colorChoices = [\"blue\", \"green\", \"red\", \"brown\"];\n  mapping(address => bool) alreadyVoted;\n\n  event SweaterEvent(address sender, string color);\n\n  constructor() {\n    for (uint i = 0; i < colorChoices.length; i++) {\n      var color = colorChoices[i];\n      sweaterMap[color] = 0;\n    }\n  }\n\n  function sweaterVote(string memory color) public {\n\n    for (uint i = 0; i < colorChoices.length; i++) {\n        if (keccak256(colorChoices[i]) == keccak256(color)) {\n            sweaterMap[color] += 1;\n            alreadyVoted[msg.sender] = true;\n            emit SweaterEvent(msg.sender, color);\n            break;\n        }\n    }\n  }\n\n  function getVotes(string memory color) public view returns (uint votes) {\n      return sweaterMap[color];\n  }\n\n  function checkAlreadyVoted(address voteAddress) public view returns (bool voted) {\n      bool vote = alreadyVoted[voteAddress];\n      if (vote) {\n        return true;\n      }\n      return false;\n  }\n}\n",
  "sourcePath": "/home/greg/Documents/dapps/drizzleUpdate/oracleSmartContracts/contracts/VoteForSweaterPt3.sol",
  "compiler": {
    "name": "solc",
    "version": "0.4.25+commit.59dbf8f1.Emscripten.clang"
  },
  "schemaVersion": "3.0.5",
  "updatedAt": "2019-03-29T18:22:57.732Z",
  "devdoc": {
    "methods": {}
  },
  "userdoc": {
    "methods": {}
  }
}